{
  "contractName": "UsersContract",
  "abi": [
    {
      "constant": false,
      "inputs": [
        {
          "internalType": "string",
          "name": "name",
          "type": "string"
        },
        {
          "internalType": "string",
          "name": "surName",
          "type": "string"
        }
      ],
      "name": "join",
      "outputs": [],
      "payable": false,
      "stateMutability": "nonpayable",
      "type": "function"
    },
    {
      "constant": true,
      "inputs": [
        {
          "internalType": "address",
          "name": "addr",
          "type": "address"
        }
      ],
      "name": "getUser",
      "outputs": [
        {
          "internalType": "string",
          "name": "",
          "type": "string"
        },
        {
          "internalType": "string",
          "name": "",
          "type": "string"
        }
      ],
      "payable": false,
      "stateMutability": "view",
      "type": "function"
    },
    {
      "constant": true,
      "inputs": [],
      "name": "totalUsers",
      "outputs": [
        {
          "internalType": "uint256",
          "name": "",
          "type": "uint256"
        }
      ],
      "payable": false,
      "stateMutability": "view",
      "type": "function"
    }
  ],
  "bytecode": "0x608060405234801561001057600080fd5b50610745806100206000396000f3fe608060405234801561001057600080fd5b50600436106100415760003560e01c806329803b21146100465780636f77926b14610198578063bff1f9e1146102c1575b600080fd5b6101966004803603604081101561005c57600080fd5b810190808035906020019064010000000081111561007957600080fd5b82018360208201111561008b57600080fd5b803590602001918460018302840111640100000000831117156100ad57600080fd5b91908080601f016020809104026020016040519081016040528093929190818152602001838380828437600081840152601f19601f8201169050808301925050505050505091929192908035906020019064010000000081111561011057600080fd5b82018360208201111561012257600080fd5b8035906020019184600183028401116401000000008311171561014457600080fd5b91908080601f016020809104026020016040519081016040528093929190818152602001838380828437600081840152601f19601f8201169050808301925050505050505091929192905050506102df565b005b6101da600480360360208110156101ae57600080fd5b81019080803573ffffffffffffffffffffffffffffffffffffffff169060200190929190505050610428565b604051808060200180602001838103835285818151815260200191508051906020019080838360005b8381101561021e578082015181840152602081019050610203565b50505050905090810190601f16801561024b5780820380516001836020036101000a031916815260200191505b50838103825284818151815260200191508051906020019080838360005b83811015610284578082015181840152602081019050610269565b50505050905090810190601f1680156102b15780820380516001836020036101000a031916815260200191505b5094505050505060405180910390f35b6102c96105ee565b6040518082815260200191505060405180910390f35b6102e8336105fb565b156102f257600080fd5b60008060003373ffffffffffffffffffffffffffffffffffffffff1673ffffffffffffffffffffffffffffffffffffffff16815260200190815260200160002090508281600001908051906020019061034c929190610651565b5081816001019080519060200190610365929190610651565b5060018060003373ffffffffffffffffffffffffffffffffffffffff1673ffffffffffffffffffffffffffffffffffffffff16815260200190815260200160002060006101000a81548160ff02191690831515021790555060023390806001815401808255809150509060018203906000526020600020016000909192909190916101000a81548173ffffffffffffffffffffffffffffffffffffffff021916908373ffffffffffffffffffffffffffffffffffffffff16021790555050505050565b606080610434336105fb565b61043d57600080fd5b6104456106d1565b6000808573ffffffffffffffffffffffffffffffffffffffff1673ffffffffffffffffffffffffffffffffffffffff168152602001908152602001600020604051806040016040529081600082018054600181600116156101000203166002900480601f0160208091040260200160405190810160405280929190818152602001828054600181600116156101000203166002900480156105275780601f106104fc57610100808354040283529160200191610527565b820191906000526020600020905b81548152906001019060200180831161050a57829003601f168201915b50505050508152602001600182018054600181600116156101000203166002900480601f0160208091040260200160405190810160405280929190818152602001828054600181600116156101000203166002900480156105c95780601f1061059e576101008083540402835291602001916105c9565b820191906000526020600020905b8154815290600101906020018083116105ac57829003601f168201915b5050505050815250509050806000015181602001518191508090509250925050915091565b6000600280549050905090565b6000600160008373ffffffffffffffffffffffffffffffffffffffff1673ffffffffffffffffffffffffffffffffffffffff16815260200190815260200160002060009054906101000a900460ff169050919050565b828054600181600116156101000203166002900490600052602060002090601f016020900481019282601f1061069257805160ff19168380011785556106c0565b828001600101855582156106c0579182015b828111156106bf5782518255916020019190600101906106a4565b5b5090506106cd91906106eb565b5090565b604051806040016040528060608152602001606081525090565b61070d91905b808211156107095760008160009055506001016106f1565b5090565b9056fea265627a7a7231582008b3a3af7893347a56fa0ec433c01c169c6eaf0ae9dd01b11431f3251c3aa32264736f6c63430005100032",
  "source": "// SPDX-License-Identifier: GPL-3.0\r\n\r\npragma solidity >=0.4.22 <0.9.0;\r\n\r\n/**\r\n * @title Users Contract\r\n * @dev Users Register\r\n */\r\ncontract UsersContract {\r\n\r\n    struct User {\r\n        string name;\r\n        string surName;\r\n    }\r\n\r\n    mapping(address => User) private users; \r\n    mapping(address => bool) private joinedUsers; \r\n    address[] total;\r\n\r\n    //event onUserJoined(address, string);\r\n\r\n    function join(string memory name, string memory surName) public\r\n    {\r\n        require(!userJoined(msg.sender));\r\n        User storage user = users[msg.sender];\r\n        user.name = name;\r\n        user.surName = surName;\r\n        joinedUsers[msg.sender] = true;\r\n        total.push(msg.sender);\r\n\r\n      //  emit onUserJoined(msg.sender, string(abi.encodePacked(name,\" \",surName)));\r\n    }\r\n\r\n    function getUser(address addr) public view returns (string memory, string memory)\r\n    {\r\n        require(userJoined(msg.sender));\r\n        User memory user = users[addr];\r\n        return (user.name,user.surName);\r\n    }\r\n\r\n    function userJoined(address addr) private view returns (bool){\r\n        return joinedUsers[addr];\r\n    }\r\n\r\n    function totalUsers() public view returns (uint){\r\n        return total.length;\r\n    }\r\n\r\n}",
  "sourcePath": "C:/source/ethereum-training/ethereum-truffle/contracts/UsersContract.sol",
  "compiler": {
    "name": "solc",
    "version": "0.5.16+commit.9c3226ce.Emscripten.clang"
  },
  "schemaVersion": "3.4.1",
  "updatedAt": "2021-05-23T04:34:29.881Z",
  "networkType": "ethereum",
  "devdoc": {
    "details": "Users Register",
    "methods": {},
    "title": "Users Contract"
  },
  "userdoc": {
    "methods": {}
  }
}